:100000000C9463000C948B000C948B000C948B006C
:100010000C948B000C948B000C948B000C94E103DB
:100020000C948B000C948B000C948B000C948B0024
:100030000C948B000C948B000C948B000C948B0014
:100040000C943F030C948B000C94AF030C94890325
:100050000C948B000C948B000C948B000C948B00F4
:100060000C948B000C948B000000000023002600F1
:10007000290000000008000201000003040700003E
:1000800000000000000000000000250028002B00F8
:1000900000000000240027002A00040404040404D3
:1000A0000404020202020202030303030303010227
:1000B00004081020408001020408102001020408F6
:1000C00010205D04AF0611241FBECFEFD8E0DEBFC5
:1000D000CDBF11E0A0E0B1E0E2E7F3E102C005909E
:1000E0000D92AA34B107D9F722E0AAE4B1E001C029
:1000F0001D92AF32B207E1F710E0C2E6D0E004C0D3
:100100002197FE010E948108C136D107C9F70E94DC
:1001100011050C94AC090C94000090E0FC01E25530
:10012000FF4F249186569F4FFC018491882399F0BC
:1001300090E0880F991FFC01E057FF4FA591B49103
:10014000FC01EA57FF4F859194918FB7F894EC9199
:10015000E22BEC938FBF089590E0FC01EE58FF4F27
:100160002491FC01E255FF4F3491FC01E656FF4F0C
:10017000E491EE23C9F0222339F0233001F1A8F4F1
:10018000213019F1223029F1F0E0EE0FFF1FEA577C
:10019000FF4FA591B4918FB7F894EC91611126C0EF
:1001A00030953E233C938FBF08952730A9F0283027
:1001B000C9F0243049F7809180008F7D03C0809181
:1001C00080008F7780938000DFCF84B58F7784BDE8
:1001D000DBCF84B58F7DFBCF8091B0008F7780938C
:1001E000B000D2CF8091B0008F7DF9CF3E2BDACF17
:1001F0001F93CF93DF93182FEB010E948D00209760
:1002000039F460E0812FDF91CF911F910C94AC0005
:10021000CF3FD10511F461E0F5CFE12FF0E0EE58CA
:10022000FF4FE491E33031F140F4E130B1F0E230DE
:10023000E1F0C038D1057CF7E4CFE73029F1E830B0
:1002400059F1E430B1F780918000806280938000A2
:10025000D0938B00C0938A0004C084B5806884BDAD
:10026000C7BDDF91CF911F91089584B5806284BD91
:10027000C8BDF7CF80918000806880938000D093C4
:100280008900C0938800EDCF8091B0008068809392
:10029000B000C093B300E5CF8091B000806280933E
:1002A000B000C093B400DDCF3FB7F8948091530104
:1002B00090915401A0915501B091560126B5A89B8B
:1002C00005C02F3F19F00196A11DB11D3FBFBA2FE8
:1002D000A92F982F8827BC01CD01620F711D811DA8
:1002E000911D42E0660F771F881F991F4A95D1F72D
:1002F00008958F929F92AF92BF92CF92DF92EF922A
:10030000FF924B015C010E9454016B017C010E9431
:1003100054016C197D098E099F09683E734081055F
:100320009105A8F321E0821A9108A108B10888EE8E
:10033000C80E83E0D81EE11CF11C81149104A104B5
:10034000B10429F7FF90EF90DF90CF90BF90AF906E
:100350009F908F900895AF92BF92CF92DF92EF92CD
:10036000FF920F931F93CF93DF936C017B018B015F
:10037000040F151FEB015E01AE18BF08C017D107AF
:1003800059F06991D601ED91FC910190F081E02D39
:10039000C6010995892B79F7C501DF91CF911F918E
:1003A0000F91FF90EF90DF90CF90BF90AF900895A6
:1003B000FC01538D448D252F30E0842F90E0821B6B
:1003C000930B541710F0CF96089501970895FC01F0
:1003D000918D828D981761F0A28DAE0FBF2FB11D48
:1003E0005D968C91928D9F5F9F73928F90E00895A0
:1003F0008FEF9FEF0895FC01918D828D981731F05A
:10040000828DE80FF11D858D90E008958FEF9FEFAD
:100410000895FC01918D228D892F90E0805C9F4F83
:10042000821B91098F739927089587E591E00E94B7
:10043000090221E0892B09F420E0822F089580E051
:1004400090E0892B29F00E94150281110C94000084
:100450000895FC01A48DA80FB92FB11DA35ABF4F59
:100460002C91848D90E001968F739927848FA689B3
:10047000B7892C93A089B1898C91837080648C9307
:10048000938D848D981306C00288F389E02D8081B6
:100490008F7D80830895EF92FF920F931F93CF93E8
:1004A000DF93EC0181E0888F9B8D8C8D98131AC0AF
:1004B000E889F989808185FF15C09FB7F894EE8996
:1004C000FF896083E889F9898081837080648083F3
:1004D0009FBF81E090E0DF91CF911F910F91FF903E
:1004E000EF900895F62E0B8D10E00F5F1F4F0F73E6
:1004F0001127E02E8C8D8E110CC00FB607FCFACFA1
:10050000E889F989808185FFF5CFCE010E94290213
:10051000F1CFEB8DEC0FFD2FF11DE35AFF4FF08271
:100520009FB7F8940B8FEA89FB8980818062CFCFD7
:10053000CF93DF93EC01888D8823B9F0AA89BB891A
:10054000E889F9898C9185FD03C0808186FD0DC005
:100550000FB607FCF7CF8C9185FFF2CF808185FF26
:10056000EDCFCE010E942902E9CFDF91CF9108950E
:100570000F931F93CF93DF93EC01EA85FB85808176
:100580009C81892B8083EE81FF8180819C81892BD6
:1005900080838BE290E00197F1F7EE81FF819081FB
:1005A0008C818095892380838A89882339F0EA8524
:1005B000FB8590818C81809589238083E885F985EE
:1005C00080819D81892339F090E080E0DF91CF9197
:1005D0001F910F9108950E945401AB01BC018C85BD
:1005E0009D85B0E0A0E08855994EAF4FBF4F840F76
:1005F000951FA61FB71F8E879F87A88BB98BE8858D
:10060000F98580819D81892361F40E9454010E85C2
:100610001F8528893989061717072807390778F7AA
:10062000D3CF0E9454012C853D85620F731F811D1D
:10063000911D6E877F87888B998BE885F9858081EE
:100640009D81892361F00E9454010E851F852889B0
:100650003989061717072807390778F7B5CF0E9499
:1006600054012C853D85A901455051092E853F85B2
:10067000FA01E21BF30BCF01860F971FA7CF1F9242
:100680000F920FB60F9211242F933F938F939F9346
:10069000AF93BF9380914F0190915001A091510170
:1006A000B091520130914E0123E0230F2D3758F5C0
:1006B0000196A11DB11D20934E0180934F0190938F
:1006C0005001A0935101B093520180915301909138
:1006D0005401A0915501B09156010196A11DB11D83
:1006E0008093530190935401A0935501B093560108
:1006F000BF91AF919F918F913F912F910F900FBE1E
:100700000F901F90189526E8230F0296A11DB11D8A
:10071000D2CF1F920F920FB60F9211242F933F93B7
:100720004F935F936F937F938F939F93AF93BF93F9
:10073000EF93FF9387E591E00E942902FF91EF91EB
:10074000BF91AF919F918F917F916F915F914F91E9
:100750003F912F910F900FBE0F901F9018951F92F1
:100760000F920FB60F9211242F938F939F93EF93B5
:10077000FF93E0916701F09168018081E0916D0144
:10078000F0916E0182FD1BC09081809170018F5F9E
:100790008F7320917101821741F0E0917001F0E0B8
:1007A000E95AFE4F958F80937001FF91EF919F91D1
:1007B0008F912F910F900FBE0F901F9018958081F1
:1007C000F4CF1F920F920FB60F9211242F933F93E5
:1007D0004F935F936F937F938F939F93AF93BF9349
:1007E000EF93FF93F0E0E0E00995FF91EF91BF9167
:1007F000AF919F918F917F916F915F914F913F91B9
:100800002F910F900FBE0F901F9018950F931F936D
:10081000CF93DF93EC01862F90E0FC01E255FF4F70
:1008200054915C83A42FB0E0FD01E255FF4FE491A9
:10083000ED8386569F4FFC017491E72FF0E0EE0F99
:10084000FF1FEA57FF4F059114911F830E83FD018F
:10085000E656FF4FE491F0E0EE0FFF1FE859FF4F1F
:10086000A591B491B987A887FC018491E82FF0E0A5
:10087000EE0FFF1FE057FF4FA591B491BB87AA87EA
:1008800081E0641380E08A8B2F5F3F4F49E3429FF2
:10089000C001439F900D11249D878C87EC915E2BA6
:1008A0005C93EE81FF8190818C8180958923808388
:1008B000DF91CF911F910F9108950F931F93CF93C5
:1008C000DF93E7E5F1E01382128288EE93E0A0E087
:1008D000B0E084839583A683B7838AE091E0918317
:1008E000808385EC90E09587848784EC90E09787FF
:1008F000868780EC90E0918B808B81EC90E0938BED
:10090000828B82EC90E0958B848B86EC90E0978BC9
:10091000868B118E128E138E148ECBE1D2E088E07E
:1009200090E09983888389E090E09B838A838AE0C2
:1009300090E09D838C838BE090E09F838E8385E0A5
:1009400090E09987888786E090E09B878A8784E695
:1009500090E09D878C879F878E8788E00E948D001E
:100960008A810E948D008C810E948D008E810E9460
:100970008D0088850E948D008A850E948D00EDE0A3
:10098000F2E016821782108611861286138614866C
:100990001586C4EFD1E08CE088838EE0898384E003
:1009A0008A8387E08B8382E08C8383E08D8388EC6D
:1009B0008E831D861E861F86188A198A1A8A1B8AAC
:1009C0001C8A1D8A1E8A1F8A188E83E190E00E946D
:1009D00087088C0128EC30E04EE06CE00E940604B1
:1009E00018870F8383E190E00E9487088C012E8195
:1009F00030E04B816A810E9406041A87098783E1EF
:100A000090E00E9487088C012E8130E04D816C813E
:100A10000E9406041C870B87DF91CF911F910F91D5
:100A20000895CF93DF9300D000D0CDB7DEB7789490
:100A300084B5826084BD84B5816084BD85B58260E3
:100A400085BD85B5816085BD80916E008160809394
:100A50006E001092810080918100826080938100FD
:100A6000809181008160809381008091800081600D
:100A7000809380008091B10084608093B100809168
:100A8000B00081608093B00080917A008460809390
:100A90007A0080917A00826080937A0080917A0057
:100AA000816080937A0080917A00806880937A00D8
:100AB0001092C100E0916701F091680182E08083AB
:100AC000E0916301F09164011082E0916501F09181
:100AD00066018FEC808310926F01E0916B01F091C1
:100AE0006C0186E08083E0916901F0916A01808168
:100AF00080618083E0916901F0916A018081886062
:100B00008083E0916901F0916A018081806880832F
:100B1000E0916901F0916A0180818F7D808368EEA8
:100B200073E080E090E00E9479014EE250E068E1DD
:100B300071E087E591E00E94AB0142E050E067E49C
:100B400071E087E591E00E94AB0189E3482E512CCA
:100B5000612C712C8091FB019091FC010E94B802E4
:100B6000BC0190E080E0A30192010E945F08CA01ED
:100B7000B9010E946407609301027093020280939E
:100B80000302909304028091FF01909100020E9461
:100B9000B802BC0190E080E0A30192010E945F08CE
:100BA000CA01B9010E9464076093050270930602AE
:100BB00080930702909308028091FD019091FE01BD
:100BC0000E94B802BC0190E080E0A30192010E9463
:100BD0005F08CA01B9010E9464076093090270931B
:100BE0000A0280930B0290930C022091050230912F
:100BF0000602409107025091080260910102709133
:100C0000020280910302909104020E94C1066B01CE
:100C10007C012091130230911402409115025091F1
:100C200016020E94C10669837A838B839C83C092DB
:100C30001302D0921402E0921502F0921602209153
:100C40001702309118024091190250911A02C701FF
:100C5000B6010E94C2064B015C018092170290927D
:100C60001802A0921902B0921A0260910D027091BE
:100C70000E02072E000C880B990B0E946607A70135
:100C800096010E94F2076B017C0160910F02709146
:100C90001002072E000C880B990B0E946607298111
:100CA0003A814B815C810E94F2079B01AC01C70134
:100CB000B6010E94C2066B017C0160911102709125
:100CC0001202072E000C880B990B0E946607A501E3
:100CD00094010E94F2079B01AC01C701B6010E947A
:100CE000C2060E942E076B0161E080911B020E94E8
:100CF000AC0060E080911D020E94AC0061E0809138
:100D00001F020E94AC0060E0809121020E94AC00B2
:100D10006091290270912A026C197D098091230249
:100D20000E94F80060912702709128026C0D7D1DD1
:100D3000809125020E94F80064E670E080E090E077
:100D40000E94790180E090E0892B09F403CF0E9492
:100D50001502882309F4FECE0E940000FBCECF933B
:100D6000DF93C4EFD1E08F8198850E9423098985A4
:100D70009A850E9423098B859C85DF91CF910C94E5
:100D800023095058BB27AA270E94D9060C94B807FC
:100D90000E94AA0738F00E94B10720F039F49F3F63
:100DA00019F426F40C94A7070EF4E095E7FB0C94D5
:100DB000A107E92F0E94C90758F3BA176207730702
:100DC0008407950720F079F4A6F50C94EB070EF450
:100DD000E0950B2EBA2FA02D0B01B90190010C014B
:100DE000CA01A0011124FF27591B99F0593F50F463
:100DF000503E68F11A16F040A22F232F342F4427BB
:100E0000585FF3CF469537952795A795F0405395B2
:100E1000C9F77EF41F16BA0B620B730B840BBAF082
:100E20009150A1F0FF0FBB1F661F771F881FC2F7ED
:100E30000EC0BA0F621F731F841F48F48795779501
:100E40006795B795F7959E3F08F0B0CF9395880FBB
:100E500008F09927EE0F9795879508950E9435071A
:100E60006894B1110C94EC0708950E94D10788F0A2
:100E70009F5798F0B92F9927B751B0F0E1F0660F5E
:100E8000771F881F991F1AF0BA95C9F714C0B1309F
:100E900091F00E94EB07B1E008950C94EB07672FE7
:100EA000782F8827B85F39F0B93FCCF386957795CE
:100EB0006795B395D9F73EF49095809570956195B7
:100EC0007F4F8F4F9F4F0895E89409C097FB3EF4E2
:100ED00090958095709561957F4F8F4F9F4F992387
:100EE000A9F0F92F96E9BB279395F6958795779505
:100EF0006795B795F111F8CFFAF4BB0F11F460FFC5
:100F00001BC06F5F7F4F8F4F9F4F16C0882311F01C
:100F100096E911C0772321F09EE8872F762F05C030
:100F2000662371F096E8862F70E060E02AF09A95CB
:100F3000660F771F881FDAF7880F9695879597F9C0
:100F4000089597F99F6780E870E060E008959FEF4B
:100F500080EC089500240A94161617061806090650
:100F6000089500240A94121613061406050608951F
:100F7000092E0394000C11F4882352F0BB0F40F4A7
:100F8000BF2B11F460FF04C06F5F7F4F8F4F9F4FE7
:100F9000089557FD9058440F551F59F05F3F71F069
:100FA0004795880F97FB991F61F09F3F79F08795D0
:100FB0000895121613061406551FF2CF4695F1DF59
:100FC00008C0161617061806991FF1CF86957105E9
:100FD000610508940895E894BB2766277727CB011D
:100FE00097F908950E9405080C94B8070E94AA0773
:100FF00038F00E94B10720F0952311F00C94A1075E
:101000000C94A70711240C94EC070E94C90770F3F5
:10101000959FC1F3950F50E0551F629FF001729F9D
:10102000BB27F00DB11D639FAA27F00DB11DAA1FAC
:10103000649F6627B00DA11D661F829F2227B00DF9
:10104000A11D621F739FB00DA11D621F839FA00D84
:10105000611D221F749F3327A00D611D231F849FD4
:10106000600D211D822F762F6A2F11249F5750402B
:101070009AF0F1F088234AF0EE0FFF1FBB1F661FA6
:10108000771F881F91505040A9F79E3F510580F06F
:101090000C94A1070C94EC075F3FE4F3983ED4F363
:1010A000869577956795B795F795E7959F5FC1F713
:1010B000FE2B880F911D9695879597F90895A1E2CB
:1010C0001A2EAA1BBB1BFD010DC0AA1FBB1FEE1FC2
:1010D000FF1FA217B307E407F50720F0A21BB30B0D
:1010E000E40BF50B661F771F881F991F1A9469F789
:1010F00060957095809590959B01AC01BD01CF01E5
:101100000895EE0FFF1F0590F491E02D09940F93C1
:101110001F93CF93DF938230910510F482E090E02B
:10112000E0912D02F0912E0230E020E0B0E0A0E04E
:10113000309799F42115310509F44AC0281B390B61
:1011400024303105D8F58A819B816115710589F1BB
:10115000FB0193838283FE0111C040815181028192
:10116000138148175907E0F04817590799F4109769
:1011700061F012960C93129713961C933296CF013E
:10118000DF91CF911F910F91089500932D0210933D
:101190002E02F4CF2115310551F04217530738F0D4
:1011A000A901DB019A01BD01DF01F801C1CFEF0107
:1011B000F9CF90932E0280932D02CDCFFE01E20F46
:1011C000F31F819391932250310939832883D7CF1C
:1011D00020912B0230912C02232B41F4209102010B
:1011E0003091030130932C0220932B0220910001B7
:1011F000309101012115310541F42DB73EB74091E1
:10120000040150910501241B350BE0912B02F09154
:101210002C02E217F307A0F42E1B3F0B2817390707
:1012200078F0AC014E5F5F4F2417350748F04E0F42
:101230005F1F50932C0240932B02819391939FCF79
:10124000F0E0E0E09CCFCF93DF930097E9F0FC0162
:10125000329713821282A0912D02B0912E02ED01DD
:1012600030E020E01097A1F420813181820F931F9C
:1012700020912B0230912C022817390709F061C008
:10128000F0932C02E0932B02DF91CF910895EA01B5
:10129000CE17DF07E8F54A815B819E0141155105B4
:1012A000B1F7E901FB83EA8349915991C40FD51F36
:1012B000EC17FD0761F4808191810296840F951FE0
:1012C000E90199838883828193819B838A83F0E0FB
:1012D000E0E012968D919C9113970097B9F52D91AE
:1012E0003C911197CD010296820F931F20912B0202
:1012F00030912C022817390739F6309751F51092A2
:101300002E0210922D02B0932C02A0932B02BCCF80
:10131000D383C28340815181840F951FC817D90799
:1013200061F44E5F5F4F88819981480F591F518347
:1013300040838A819B81938382832115310509F043
:10134000B0CFF0932E02E0932D029ECFFD01DC0181
:10135000C0CF13821282D7CF10E0C2E6D0E004C023
:10136000FE010E9481082196C336D107C9F7F8947F
:02137000FFCFAD
:1013720000002F028000000000004B02AB01D801E8
:1013820098020902E701FB0153656C662D43656E05
:10139200746572696E67204C6566742D48616E646F
:1013A200204D617A6520536F6C76657220284E65F8
:0A13B2007750696E6729000D0A00EC
:00000001FF
